{
  "contractName": "Bank",
  "abi": [
    {
      "inputs": [],
      "payable": false,
      "stateMutability": "nonpayable",
      "type": "constructor"
    },
    {
      "constant": true,
      "inputs": [],
      "name": "getBalance",
      "outputs": [
        {
          "internalType": "int256",
          "name": "",
          "type": "int256"
        }
      ],
      "payable": false,
      "stateMutability": "view",
      "type": "function"
    },
    {
      "constant": false,
      "inputs": [
        {
          "internalType": "int256",
          "name": "amt",
          "type": "int256"
        }
      ],
      "name": "withdraw",
      "outputs": [],
      "payable": false,
      "stateMutability": "nonpayable",
      "type": "function"
    },
    {
      "constant": false,
      "inputs": [
        {
          "internalType": "int256",
          "name": "amt",
          "type": "int256"
        }
      ],
      "name": "deposit",
      "outputs": [],
      "payable": false,
      "stateMutability": "nonpayable",
      "type": "function"
    },
    {
      "constant": false,
      "inputs": [
        {
          "internalType": "string",
          "name": "_x",
          "type": "string"
        }
      ],
      "name": "setMes",
      "outputs": [],
      "payable": false,
      "stateMutability": "nonpayable",
      "type": "function"
    },
    {
      "constant": true,
      "inputs": [],
      "name": "getMes",
      "outputs": [
        {
          "internalType": "string",
          "name": "",
          "type": "string"
        }
      ],
      "payable": false,
      "stateMutability": "view",
      "type": "function"
    }
  ],
  "bytecode": "0x608060405234801561001057600080fd5b5060016000819055506040518060400160405280600481526020017f74657374000000000000000000000000000000000000000000000000000000008152506001908051906020019061006492919061006a565b5061010f565b828054600181600116156101000203166002900490600052602060002090601f016020900481019282601f106100ab57805160ff19168380011785556100d9565b828001600101855582156100d9579182015b828111156100d85782518255916020019190600101906100bd565b5b5090506100e691906100ea565b5090565b61010c91905b808211156101085760008160009055506001016100f0565b5090565b90565b6103cf8061011e6000396000f3fe608060405234801561001057600080fd5b50600436106100575760003560e01c806312065fe01461005c5780637301e3bd1461007a5780637e62eab8146100fd578063f04991f01461012b578063f5f7fdfe14610159575b600080fd5b610064610214565b6040518082815260200191505060405180910390f35b61008261021d565b6040518080602001828103825283818151815260200191508051906020019080838360005b838110156100c25780820151818401526020810190506100a7565b50505050905090810190601f1680156100ef5780820380516001836020036101000a031916815260200191505b509250505060405180910390f35b6101296004803603602081101561011357600080fd5b81019080803590602001909291905050506102bf565b005b6101576004803603602081101561014157600080fd5b81019080803590602001909291905050506102cd565b005b6102126004803603602081101561016f57600080fd5b810190808035906020019064010000000081111561018c57600080fd5b82018360208201111561019e57600080fd5b803590602001918460018302840111640100000000831117156101c057600080fd5b91908080601f016020809104026020016040519081016040528093929190818152602001838380828437600081840152601f19601f8201169050808301925050505050505091929192905050506102db565b005b60008054905090565b606060018054600181600116156101000203166002900480601f0160208091040260200160405190810160405280929190818152602001828054600181600116156101000203166002900480156102b55780601f1061028a576101008083540402835291602001916102b5565b820191906000526020600020905b81548152906001019060200180831161029857829003601f168201915b5050505050905090565b806000540360008190555050565b806000540160008190555050565b80600190805190602001906102f19291906102f5565b5050565b828054600181600116156101000203166002900490600052602060002090601f016020900481019282601f1061033657805160ff1916838001178555610364565b82800160010185558215610364579182015b82811115610363578251825591602001919060010190610348565b5b5090506103719190610375565b5090565b61039791905b8082111561039357600081600090555060010161037b565b5090565b9056fea265627a7a723158207cb197597b4284c951e8335a27945ad3c47b5a6918ba4b75a4f9cdf8892821fc64736f6c63430005100032",
  "source": "pragma solidity ^0.5.0;\r\n\r\ncontract Bank{\r\n    int bal;\r\n    string message;\r\n\r\n    constructor() public\r\n    {\r\n        bal = 1;\r\n        message = \"test\";\r\n    }\r\n\r\n    function getBalance() view public returns(int)\r\n    {\r\n        return bal;\r\n    }\r\n\r\n    function withdraw(int amt) public\r\n    {\r\n        bal = bal - amt;\r\n    }\r\n\r\n    function deposit(int amt) public\r\n    {\r\n        bal = bal + amt;\r\n    }\r\n\r\n    function setMes(string memory _x) public\r\n    {\r\n        message = _x;\r\n    }\r\n\r\n    function getMes() view public returns(string memory)\r\n    {\r\n        return message;\r\n    }\r\n}",
  "sourcePath": "D:/Hizkia/HP440/Kuliah/Semester 8/Blockchain/Projects/Gogochain/contracts/bank.sol",
  "compiler": {
    "name": "solc",
    "version": "0.5.16+commit.9c3226ce.Emscripten.clang"
  },
  "schemaVersion": "3.3.4",
  "updatedAt": "2021-04-08T07:05:17.146Z",
  "networkType": "ethereum",
  "devdoc": {
    "methods": {}
  },
  "userdoc": {
    "methods": {}
  }
}